{
  "_format": "hh-sol-artifact-1",
  "contractName": "ERC725Identity",
  "sourceName": "contracts/ERC725Identity.sol",
  "abi": [
    {
      "inputs": [],
      "stateMutability": "nonpayable",
      "type": "constructor"
    },
    {
      "anonymous": false,
      "inputs": [
        {
          "indexed": true,
          "internalType": "bytes32",
          "name": "key",
          "type": "bytes32"
        },
        {
          "indexed": false,
          "internalType": "bytes",
          "name": "value",
          "type": "bytes"
        }
      ],
      "name": "DataChanged",
      "type": "event"
    },
    {
      "inputs": [
        {
          "internalType": "bytes32",
          "name": "_key",
          "type": "bytes32"
        }
      ],
      "name": "getData",
      "outputs": [
        {
          "internalType": "bytes",
          "name": "",
          "type": "bytes"
        }
      ],
      "stateMutability": "view",
      "type": "function"
    },
    {
      "inputs": [],
      "name": "owner",
      "outputs": [
        {
          "internalType": "address",
          "name": "",
          "type": "address"
        }
      ],
      "stateMutability": "view",
      "type": "function"
    },
    {
      "inputs": [
        {
          "internalType": "bytes32",
          "name": "_key",
          "type": "bytes32"
        },
        {
          "internalType": "bytes",
          "name": "_value",
          "type": "bytes"
        }
      ],
      "name": "setData",
      "outputs": [],
      "stateMutability": "nonpayable",
      "type": "function"
    },
    {
      "inputs": [
        {
          "internalType": "address",
          "name": "newOwner",
          "type": "address"
        }
      ],
      "name": "transferOwnership",
      "outputs": [],
      "stateMutability": "nonpayable",
      "type": "function"
    }
  ],
  "bytecode": "0x6080604052348015600f57600080fd5b50336000806101000a81548173ffffffffffffffffffffffffffffffffffffffff021916908373ffffffffffffffffffffffffffffffffffffffff160217905550610a2d8061005f6000396000f3fe608060405234801561001057600080fd5b506004361061004c5760003560e01c806354f6127f146100515780637f23690c146100815780638da5cb5b1461009d578063f2fde38b146100bb575b600080fd5b61006b600480360381019061006691906103a1565b6100d7565b604051610078919061045e565b60405180910390f35b61009b600480360381019061009691906104e5565b61017c565b005b6100a561026c565b6040516100b29190610586565b60405180910390f35b6100d560048036038101906100d091906105cd565b610290565b005b60606001600083815260200190815260200160002080546100f790610629565b80601f016020809104026020016040519081016040528092919081815260200182805461012390610629565b80156101705780601f1061014557610100808354040283529160200191610170565b820191906000526020600020905b81548152906001019060200180831161015357829003601f168201915b50505050509050919050565b60008054906101000a900473ffffffffffffffffffffffffffffffffffffffff1673ffffffffffffffffffffffffffffffffffffffff163373ffffffffffffffffffffffffffffffffffffffff161461020a576040517f08c379a0000000000000000000000000000000000000000000000000000000008152600401610201906106b7565b60405180910390fd5b818160016000868152602001908152602001600020918261022c9291906108c7565b50827fece574603820d07bc9b91f2a932baadf4628aabcb8afba49776529c14a6104b2838360405161025f9291906109d3565b60405180910390a2505050565b60008054906101000a900473ffffffffffffffffffffffffffffffffffffffff1681565b60008054906101000a900473ffffffffffffffffffffffffffffffffffffffff1673ffffffffffffffffffffffffffffffffffffffff163373ffffffffffffffffffffffffffffffffffffffff161461031e576040517f08c379a0000000000000000000000000000000000000000000000000000000008152600401610315906106b7565b60405180910390fd5b806000806101000a81548173ffffffffffffffffffffffffffffffffffffffff021916908373ffffffffffffffffffffffffffffffffffffffff16021790555050565b600080fd5b600080fd5b6000819050919050565b61037e8161036b565b811461038957600080fd5b50565b60008135905061039b81610375565b92915050565b6000602082840312156103b7576103b6610361565b5b60006103c58482850161038c565b91505092915050565b600081519050919050565b600082825260208201905092915050565b60005b838110156104085780820151818401526020810190506103ed565b60008484015250505050565b6000601f19601f8301169050919050565b6000610430826103ce565b61043a81856103d9565b935061044a8185602086016103ea565b61045381610414565b840191505092915050565b600060208201905081810360008301526104788184610425565b905092915050565b600080fd5b600080fd5b600080fd5b60008083601f8401126104a5576104a4610480565b5b8235905067ffffffffffffffff8111156104c2576104c1610485565b5b6020830191508360018202830111156104de576104dd61048a565b5b9250929050565b6000806000604084860312156104fe576104fd610361565b5b600061050c8682870161038c565b935050602084013567ffffffffffffffff81111561052d5761052c610366565b5b6105398682870161048f565b92509250509250925092565b600073ffffffffffffffffffffffffffffffffffffffff82169050919050565b600061057082610545565b9050919050565b61058081610565565b82525050565b600060208201905061059b6000830184610577565b92915050565b6105aa81610565565b81146105b557600080fd5b50565b6000813590506105c7816105a1565b92915050565b6000602082840312156105e3576105e2610361565b5b60006105f1848285016105b8565b91505092915050565b7f4e487b7100000000000000000000000000000000000000000000000000000000600052602260045260246000fd5b6000600282049050600182168061064157607f821691505b602082108103610654576106536105fa565b5b50919050565b600082825260208201905092915050565b7f4e6f74206f776e65720000000000000000000000000000000000000000000000600082015250565b60006106a160098361065a565b91506106ac8261066b565b602082019050919050565b600060208201905081810360008301526106d081610694565b9050919050565b600082905092915050565b7f4e487b7100000000000000000000000000000000000000000000000000000000600052604160045260246000fd5b60008190508160005260206000209050919050565b60006020601f8301049050919050565b600082821b905092915050565b6000600883026107737fffffffffffffffffffffffffffffffffffffffffffffffffffffffffffffffff82610736565b61077d8683610736565b95508019841693508086168417925050509392505050565b6000819050919050565b6000819050919050565b60006107c46107bf6107ba84610795565b61079f565b610795565b9050919050565b6000819050919050565b6107de836107a9565b6107f26107ea826107cb565b848454610743565b825550505050565b600090565b6108076107fa565b6108128184846107d5565b505050565b5b818110156108365761082b6000826107ff565b600181019050610818565b5050565b601f82111561087b5761084c81610711565b61085584610726565b81016020851015610864578190505b61087861087085610726565b830182610817565b50505b505050565b600082821c905092915050565b600061089e60001984600802610880565b1980831691505092915050565b60006108b7838361088d565b9150826002028217905092915050565b6108d183836106d7565b67ffffffffffffffff8111156108ea576108e96106e2565b5b6108f48254610629565b6108ff82828561083a565b6000601f83116001811461092e576000841561091c578287013590505b61092685826108ab565b86555061098e565b601f19841661093c86610711565b60005b828110156109645784890135825560018201915060208501945060208101905061093f565b86831015610981578489013561097d601f89168261088d565b8355505b6001600288020188555050505b50505050505050565b82818337600083830152505050565b60006109b283856103d9565b93506109bf838584610997565b6109c883610414565b840190509392505050565b600060208201905081810360008301526109ee8184866109a6565b9050939250505056fea26469706673582212209916eb41ee38614c34b656f7670ff374474bbd85a9c321e7fc1760e1051553f664736f6c634300081c0033",
  "linkReferences": {},
  "deployedLinkReferences": {}
}